{
    "txid": "7bb5fca9f508d3470b4e86f867ce607a3f04a56a8ddee65405d8e27b02dc2d21",
    "hash": "7bb5fca9f508d3470b4e86f867ce607a3f04a56a8ddee65405d8e27b02dc2d21",
    "version": 1,
    "size": 223,
    "vsize": 223,
    "weight": 892,
    "locktime": 0,
    "vin": [
        {
            "txid": "4d49a71ec9da436f71ec4ee231d04f292a29cd316f598bb7068feccabdc59485",
            "vout": 0,
            "scriptSig": {
                "asm": "30440220131432090a6af42da3e8335ff110831b41a44f4e9d18d88f5d50278380696c7202200fc2e48938f323ad13625890c0ea926c8a189c08b8efc38376b20c8a2188e96e[ALL] 0479be667ef9dcbbac55a06295ce870b07029bfcdb2dce28d959f2815b16f81798483ada7726a3c4655da4fbfc0e1108a8fd17b448a68554199c47d08ffb10d4b8",
                "hex": "4730440220131432090a6af42da3e8335ff110831b41a44f4e9d18d88f5d50278380696c7202200fc2e48938f323ad13625890c0ea926c8a189c08b8efc38376b20c8a2188e96e01410479be667ef9dcbbac55a06295ce870b07029bfcdb2dce28d959f2815b16f81798483ada7726a3c4655da4fbfc0e1108a8fd17b448a68554199c47d08ffb10d4b8"
            },
            "sequence": 4294967295
        }
    ],
    "vout": [
        {
            "value": 0.00100000,
            "n": 0,
            "scriptPubKey": {
                "asm": "OP_DUP OP_HASH160 1fc11f39be1729bf973a7ab6a615ca4729d64574 OP_EQUALVERIFY OP_CHECKSIG",
                "desc": "addr(SQBuL8zZknsNP5U8TXHXALnRJMwRQtes9B)#ukszf8qj",
                "hex": "76a9141fc11f39be1729bf973a7ab6a615ca4729d6457488ac",
                "address": "SQBuL8zZknsNP5U8TXHXALnRJMwRQtes9B",
                "type": "pubkeyhash"
            }
        }
    ],
    "hex": "01000000018594c5bdcaec8f06b78b596f31cd292a294fd031e24eec716f43dac91ea7494d000000008a4730440220131432090a6af42da3e8335ff110831b41a44f4e9d18d88f5d50278380696c7202200fc2e48938f323ad13625890c0ea926c8a189c08b8efc38376b20c8a2188e96e01410479be667ef9dcbbac55a06295ce870b07029bfcdb2dce28d959f2815b16f81798483ada7726a3c4655da4fbfc0e1108a8fd17b448a68554199c47d08ffb10d4b8ffffffff01a0860100000000001976a9141fc11f39be1729bf973a7ab6a615ca4729d6457488ac00000000"
}
