{
    "txid": "977e7cd286cb72cd470d539ba6cb48400f8f387d97451d45cdb8819437a303af",
    "hash": "977e7cd286cb72cd470d539ba6cb48400f8f387d97451d45cdb8819437a303af",
    "version": 1,
    "size": 224,
    "vsize": 224,
    "locktime": 0,
    "vin": [
        {
            "txid": "4d49a71ec9da436f71ec4ee231d04f292a29cd316f598bb7068feccabdc59485",
            "vout": 0,
            "scriptSig": {
                "asm": "304502210096a75056c9e2cc62b7214777b3d2a592cfda7092520126d4ebfcd6d590c99bd8022051bb746359cf98c0603f3004477eac68701132380db8facba19c89dc5ab5c5e2[ALL] 0479be667ef9dcbbac55a06295ce870b07029bfcdb2dce28d959f2815b16f81798483ada7726a3c4655da4fbfc0e1108a8fd17b448a68554199c47d08ffb10d4b8",
                "hex": "48304502210096a75056c9e2cc62b7214777b3d2a592cfda7092520126d4ebfcd6d590c99bd8022051bb746359cf98c0603f3004477eac68701132380db8facba19c89dc5ab5c5e201410479be667ef9dcbbac55a06295ce870b07029bfcdb2dce28d959f2815b16f81798483ada7726a3c4655da4fbfc0e1108a8fd17b448a68554199c47d08ffb10d4b8"
            },
            "sequence": 4294967295
        }
    ],
    "vout": [
        {
            "value": 0.00100000,
            "n": 0,
            "scriptPubKey": {
                "asm": "OP_DUP OP_HASH160 5834479edbbe0539b31ffd3a8f8ebadc2165ed01 OP_EQUALVERIFY OP_CHECKSIG",
                "hex": "76a9145834479edbbe0539b31ffd3a8f8ebadc2165ed0188ac",
                "reqSigs": 1,
                "type": "pubkeyhash",
                "addresses": [
                    "193P6LtvS4nCnkDvM9uXn1gsSRqh4aDAz7"
                ]
            }
        }
    ],
    "hex": "01000000018594c5bdcaec8f06b78b596f31cd292a294fd031e24eec716f43dac91ea7494d000000008b48304502210096a75056c9e2cc62b7214777b3d2a592cfda7092520126d4ebfcd6d590c99bd8022051bb746359cf98c0603f3004477eac68701132380db8facba19c89dc5ab5c5e201410479be667ef9dcbbac55a06295ce870b07029bfcdb2dce28d959f2815b16f81798483ada7726a3c4655da4fbfc0e1108a8fd17b448a68554199c47d08ffb10d4b8ffffffff01a0860100000000001976a9145834479edbbe0539b31ffd3a8f8ebadc2165ed0188ac00000000"
}
