{
    "txid": "e53e05d5591c15d8bea55d5649d5944bc9a75c2f61b42fa52cef36910d2a7653",
    "hash": "e53e05d5591c15d8bea55d5649d5944bc9a75c2f61b42fa52cef36910d2a7653",
    "version": 1,
    "size": 126,
    "vsize": 126,
    "weight": 504,
    "locktime": 0,
    "vin": [
        {
            "txid": "5897de6bd6027a475eadd57019d4e6872c396d0716c4875a5f1a6fcfdf385c1f",
            "vout": 0,
            "scriptSig": {
                "asm": "",
                "hex": ""
            },
            "sequence": 4294967293
        },
        {
            "txid": "69e9c12d30a6cd598a31ddfcaabeb9d9f0baf8938bf0ba6610beb04f589cc5ef",
            "vout": 0,
            "scriptSig": {
                "asm": "",
                "hex": ""
            },
            "sequence": 1
        }
    ],
    "vout": [
        {
            "value": 0.18000000,
            "n": 0,
            "scriptPubKey": {
                "asm": "OP_DUP OP_HASH160 1fc11f39be1729bf973a7ab6a615ca4729d64574 OP_EQUALVERIFY OP_CHECKSIG",
                "hex": "76a9141fc11f39be1729bf973a7ab6a615ca4729d6457488ac",
                "reqSigs": 1,
                "type": "pubkeyhash",
                "addresses": [
                    "LN7rZWXF75vE7aNq6EHjtThcro5GpGmjYy"
                ]
            }
        }
    ],
    "hex": "01000000021f5c38dfcf6f1a5f5a87c416076d392c87e6d41970d5ad5e477a02d66bde97580000000000fdffffffefc59c584fb0be1066baf08b93f8baf0d9b9beaafcdd318a59cda6302dc1e9690000000000010000000180a81201000000001976a9141fc11f39be1729bf973a7ab6a615ca4729d6457488ac00000000"
}
