{
    "txid": "ffc7e509ec3fd60a182eb712621d41a47dc7d4ff310a70826c2fb0e9afb3fa02",
    "hash": "ffc7e509ec3fd60a182eb712621d41a47dc7d4ff310a70826c2fb0e9afb3fa02",
    "version": 1,
    "size": 223,
    "vsize": 223,
    "weight": 892,
    "locktime": 0,
    "vin": [
        {
            "txid": "6c2789243608b46f750f49ff24f6f79a78c3010f7e56951e045e5b7ea5d07bf7",
            "vout": 0,
            "scriptSig": {
                "asm": "30440220131432090a6af42da3e8335ff110831b41a44f4e9d18d88f5d50278380696c7202200fc2e48938f323ad13625890c0ea926c8a189c08b8efc38376b20c8a2188e96e[ALL] 0479be667ef9dcbbac55a06295ce870b07029bfcdb2dce28d959f2815b16f81798483ada7726a3c4655da4fbfc0e1108a8fd17b448a68554199c47d08ffb10d4b8",
                "hex": "4730440220131432090a6af42da3e8335ff110831b41a44f4e9d18d88f5d50278380696c7202200fc2e48938f323ad13625890c0ea926c8a189c08b8efc38376b20c8a2188e96e01410479be667ef9dcbbac55a06295ce870b07029bfcdb2dce28d959f2815b16f81798483ada7726a3c4655da4fbfc0e1108a8fd17b448a68554199c47d08ffb10d4b8"
            },
            "sequence": 4294967295
        }
    ],
    "vout": [
        {
            "value": 0.00100000,
            "n": 0,
            "scriptPubKey": {
                "asm": "OP_DUP OP_HASH160 834584e0afbd77db57fcf4a3a076b8d3e02aa6fb OP_EQUALVERIFY OP_CHECKSIG",
                "hex": "76a914834584e0afbd77db57fcf4a3a076b8d3e02aa6fb88ac",
                "reqSigs": 1,
                "type": "pubkeyhash",
                "addresses": [
                    "LXC44cQhuRufFtaDhDYv4q8nxQJBkUAsXp"
                ]
            }
        }
    ],
    "hex": "01000000018594c5bdcaec8f06b78b596f31cd292a294fd031e24eec716f43dac91ea7494d000000008a4730440220131432090a6af42da3e8335ff110831b41a44f4e9d18d88f5d50278380696c7202200fc2e48938f323ad13625890c0ea926c8a189c08b8efc38376b20c8a2188e96e01410479be667ef9dcbbac55a06295ce870b07029bfcdb2dce28d959f2815b16f81798483ada7726a3c4655da4fbfc0e1108a8fd17b448a68554199c47d08ffb10d4b8ffffffff01a0860100000000001976a9145834479edbbe0539b31ffd3a8f8ebadc2165ed0188ac00000000"
}
