{
    "txid": "6d91ec40ccf2f0e1f4aad31d7a2eaeff34be2f78a743ce938eb285efbcafc3cd",
    "hash": "6d91ec40ccf2f0e1f4aad31d7a2eaeff34be2f78a743ce938eb285efbcafc3cd",
    "version": 2,
    "size": 85,
    "vsize": 85,
    "weight": 340,
    "locktime": 0,
    "vin": [
        {
            "txid": "69e9c12d30a6cd598a31ddfcaabeb9d9f0baf8938bf0ba6610beb04f589cc5ef",
            "vout": 0,
            "scriptSig": {
                "asm": "",
                "hex": ""
            },
            "sequence": 4294967293
        }
    ],
    "vout": [
        {
            "value": 0.00200000,
            "n": 0,
            "scriptPubKey": {
                "asm": "OP_DUP OP_HASH160 f9bbbf34117bfd1384c0708a13509f5599bb49e7 OP_EQUALVERIFY OP_CHECKSIG",
                "hex": "76a914f9bbbf34117bfd1384c0708a13509f5599bb49e788ac",
                "reqSigs": 1,
                "type": "pubkeyhash",
                "addresses": [
                    "LhzRRruapBx5gEtAf9RuVEePrzcG1wxRYa"
                ]
            }
        }
    ],
    "hex": "0200000001efc59c584fb0be1066baf08b93f8baf0d9b9beaafcdd318a59cda6302dc1e9690000000000fdffffff01400d0300000000001976a914f9bbbf34117bfd1384c0708a13509f5599bb49e788ac00000000"
}
