[
["The following are deserialized transactions which are invalid."],
["They are in the form"],
["[[[prevout hash, prevout index, prevout scriptPubKey], [input 2], ...],"],
["serializedTransaction, enforceP2SH]"],
["Objects that are only a single string (like this one) are ignored"],

["0e1b5688cf179cd9f7cbda1fac0090f6e684bbf8cd946660120197c3f3681809 but with extra junk appended to the end of the scriptPubKey"],
[[["6ca7ec7b1847f6bdbd737176050e6a08d66ccd55bb94ad24f4018024107a5827", 0, "0x41 0x043b640e983c9690a14c039a2037ecc3467b27a0dcd58f19d76c7bc118d09fec45adc5370a1c5bf8067ca9f5557a4cf885fdb0fe0dcc9c3a7137226106fbc779a5 CHECKSIG VERIFY 1"]],
"010000000127587a10248001f424ad94bb55cd6cd6086a0e05767173bdbdf647187beca76c000000004948304502201b822ad10d6adc1a341ae8835be3f70a25201bbff31f59cbb9c5353a5f0eca18022100ea7b2f7074e9aa9cf70aa8d0ffee13e6b45dddabf1ab961bda378bcdb778fa4701ffffffff0100f2052a010000001976a914fc50c5907d86fed474ba5ce8b12a66e0a4c139d888ac00000000", true],

["This is the nearly-standard transaction with CHECKSIGVERIFY 1 instead of CHECKSIG from tx_valid.json"],
["but with the signature duplicated in the scriptPubKey with a non-standard pushdata prefix"],
["See FindAndDelete, which will only remove if it uses the same pushdata prefix as is standard"],
[[["0000000000000000000000000000000000000000000000000000000000000100", 0, "DUP HASH160 0x14 0x5b6462475454710f3c22f5fdf0b40704c92f25c3 EQUALVERIFY CHECKSIGVERIFY 1 0x4c 0x47 0x3044022067288ea50aa799543a536ff9306f8e1cba05b9c6b10951175b924f96732555ed022026d7b5265f38d21541519e4a1e55044d5b9e17e15cdbaf29ae3792e99e883e7a01"]],
"01000000010001000000000000000000000000000000000000000000000000000000000000000000006a473044022067288ea50aa799543a536ff9306f8e1cba05b9c6b10951175b924f96732555ed022026d7b5265f38d21541519e4a1e55044d5b9e17e15cdbaf29ae3792e99e883e7a012103ba8c8b86dea131c22ab967e6dd99bdae8eff7a1f75a2c35f1f944109e3fe5e22ffffffff010000000000000000015100000000", true],

["Same as above, but with the sig in the scriptSig also pushed with the same non-standard OP_PUSHDATA"],
[[["0000000000000000000000000000000000000000000000000000000000000100", 0, "DUP HASH160 0x14 0x5b6462475454710f3c22f5fdf0b40704c92f25c3 EQUALVERIFY CHECKSIGVERIFY 1 0x4c 0x47 0x3044022067288ea50aa799543a536ff9306f8e1cba05b9c6b10951175b924f96732555ed022026d7b5265f38d21541519e4a1e55044d5b9e17e15cdbaf29ae3792e99e883e7a01"]],
"01000000010001000000000000000000000000000000000000000000000000000000000000000000006b4c473044022067288ea50aa799543a536ff9306f8e1cba05b9c6b10951175b924f96732555ed022026d7b5265f38d21541519e4a1e55044d5b9e17e15cdbaf29ae3792e99e883e7a012103ba8c8b86dea131c22ab967e6dd99bdae8eff7a1f75a2c35f1f944109e3fe5e22ffffffff010000000000000000015100000000", true],

["An invalid P2SH Transaction"],
[[["0000000000000000000000000000000000000000000000000000000000000100", 0, "HASH160 0x14 0x7a052c840ba73af26755de42cf01cc9e0a49fef0 EQUAL"]],
"010000000100010000000000000000000000000000000000000000000000000000000000000000000009085768617420697320ffffffff010000000000000000015100000000", true],

["Tests for CheckTransaction()"],
["No inputs"],
[[["0000000000000000000000000000000000000000000000000000000000000100", 0, "HASH160 0x14 0x7a052c840ba73af26755de42cf01cc9e0a49fef0 EQUAL"]],
"0100000000010000000000000000015100000000", true],

["No outputs"],
[[["0000000000000000000000000000000000000000000000000000000000000100", 0, "HASH160 0x14 0x05ab9e14d983742513f0f451e105ffb4198d1dd4 EQUAL"]],
"01000000010001000000000000000000000000000000000000000000000000000000000000000000006d483045022100f16703104aab4e4088317c862daec83440242411b039d14280e03dd33b487ab802201318a7be236672c5c56083eb7a5a195bc57a40af7923ff8545016cd3b571e2a601232103c40e5d339df3f30bf753e7e04450ae4ef76c9e45587d1d993bdc4cd06f0651c7acffffffff0000000000", true],

["Negative output"],
[[["0000000000000000000000000000000000000000000000000000000000000100", 0, "HASH160 0x14 0xae609aca8061d77c5e111f6bb62501a6bbe2bfdb EQUAL"]],
"01000000010001000000000000000000000000000000000000000000000000000000000000000000006d4830450220063222cbb128731fc09de0d7323746539166544d6c1df84d867ccea84bcc8903022100bf568e8552844de664cd41648a031554327aa8844af34b4f27397c65b92c04de0123210243ec37dee0e2e053a9c976f43147e79bc7d9dc606ea51010af1ac80db6b069e1acffffffff01ffffffffffffffff015100000000", true],

["MAX_MONEY + 1 output"],
[[["0000000000000000000000000000000000000000000000000000000000000100", 0, "HASH160 0x14 0x32afac281462b822adbec5094b8d4d337dd5bd6a EQUAL"]],
"01000000010001000000000000000000000000000000000000000000000000000000000000000000006e493046022100e1eadba00d9296c743cb6ecc703fd9ddc9b3cd12906176a226ae4c18d6b00796022100a71aef7d2874deff681ba6080f1b278bac7bb99c61b08a85f4311970ffe7f63f012321030c0588dc44d92bdcbf8e72093466766fdc265ead8db64517b0c542275b70fffbacffffffff010140075af0750700015100000000", true],

["MAX_MONEY output + 1 output"],
[[["0000000000000000000000000000000000000000000000000000000000000100", 0, "HASH160 0x14 0xb558cbf4930954aa6a344363a15668d7477ae716 EQUAL"]],
"01000000010001000000000000000000000000000000000000000000000000000000000000000000006d483045022027deccc14aa6668e78a8c9da3484fbcd4f9dcc9bb7d1b85146314b21b9ae4d86022100d0b43dece8cfb07348de0ca8bc5b86276fa88f7f2138381128b7c36ab2e42264012321029bb13463ddd5d2cc05da6e84e37536cb9525703cfd8f43afdb414988987a92f6acffffffff020040075af075070001510001000000000000015100000000", true],

["Duplicate inputs"],
[[["0000000000000000000000000000000000000000000000000000000000000100", 0, "HASH160 0x14 0x236d0639db62b0773fd8ac34dc85ae19e9aba80a EQUAL"]],
"01000000020001000000000000000000000000000000000000000000000000000000000000000000006c47304402204bb1197053d0d7799bf1b30cd503c44b58d6240cccbdc85b6fe76d087980208f02204beeed78200178ffc6c74237bb74b3f276bbb4098b5605d814304fe128bf1431012321039e8815e15952a7c3fada1905f8cf55419837133bd7756c0ef14fc8dfe50c0deaacffffffff0001000000000000000000000000000000000000000000000000000000000000000000006c47304402202306489afef52a6f62e90bf750bbcdf40c06f5c6b138286e6b6b86176bb9341802200dba98486ea68380f47ebb19a7df173b99e6bc9c681d6ccf3bde31465d1f16b3012321039e8815e15952a7c3fada1905f8cf55419837133bd7756c0ef14fc8dfe50c0deaacffffffff010000000000000000015100000000", true],

["Coinbase of size 1"],
["Note the input is just required to make the tester happy"],
[[["0000000000000000000000000000000000000000000000000000000000000000", -1, "1"]],
"01000000010000000000000000000000000000000000000000000000000000000000000000ffffffff0151ffffffff010000000000000000015100000000", true],

["Coinbase of size 101"],
["Note the input is just required to make the tester happy"],
[[["0000000000000000000000000000000000000000000000000000000000000000", -1, "1"]],
"01000000010000000000000000000000000000000000000000000000000000000000000000ffffffff655151515151515151515151515151515151515151515151515151515151515151515151515151515151515151515151515151515151515151515151515151515151515151515151515151515151515151515151515151515151515151515151515151515151ffffffff010000000000000000015100000000", true],

["Null txin"],
[[["0000000000000000000000000000000000000000000000000000000000000000", -1, "HASH160 0x14 0x02dae7dbbda56097959cba59b1989dd3e47937bf EQUAL"]],
"01000000010000000000000000000000000000000000000000000000000000000000000000ffffffff6e49304602210086f39e028e46dafa8e1e3be63906465f4cf038fbe5ed6403dc3e74ae876e6431022100c4625c675cfc5c7e3a0e0d7eaec92ac24da20c73a88eb40d09253e51ac6def5201232103a183ddc41e84753aca47723c965d1b5c8b0e2b537963518355e6dd6cf8415e50acffffffff010000000000000000015100000000", true],

["Same as the transactions in valid with one input SIGHASH_ALL and one SIGHASH_ANYONECANPAY, but we set the _ANYONECANPAY sequence number, invalidating the SIGHASH_ALL signature"],
[[["0000000000000000000000000000000000000000000000000000000000000100", 0, "0x21 0x035e7f0d4d0841bcd56c39337ed086b1a633ee770c1ffdd94ac552a95ac2ce0efc CHECKSIG"],
  ["0000000000000000000000000000000000000000000000000000000000000200", 0, "0x21 0x035e7f0d4d0841bcd56c39337ed086b1a633ee770c1ffdd94ac552a95ac2ce0efc CHECKSIG"]],
 "01000000020001000000000000000000000000000000000000000000000000000000000000000000004948304502203a0f5f0e1f2bdbcd04db3061d18f3af70e07f4f467cbc1b8116f267025f5360b022100c792b6e215afc5afc721a351ec413e714305cb749aae3d7fee76621313418df10101000000000200000000000000000000000000000000000000000000000000000000000000000000484730440220201dc2d030e380e8f9cfb41b442d930fa5a685bb2c8db5906671f865507d0670022018d9e7a8d4c8d86a73c2a724ee38ef983ec249827e0e464841735955c707ece98101000000010100000000000000015100000000", true]
]
