{
    "txid": "1c50c1770374d7de2f81a87463a5225bb620d25fd467536223a5b715a47c9e32",
    "hash": "1c50c1770374d7de2f81a87463a5225bb620d25fd467536223a5b715a47c9e32",
    "version": 2,
    "locktime": 0,
    "vin": [
        {
            "txid": "5ee62e3f7757f5fd995b2fa1bdb5b744298146098d5de92959ec4b52dc77191e",
            "vout": 1,
            "scriptSig": {
                "asm": "",
                "hex": ""
            },
            "sequence": 4294967295
        }, 
        {
            "txid": "3cd215c1c6b7ae33bc6266f268fd212b83860e13902b454502ce6d54448e398a",
            "vout": 25,
            "scriptSig": {
                "asm": "",
                "hex": ""
            },
            "sequence": 4294967295
        }, 
        {
            "txid": "0f941395005b80a61726baecebb11d7caa184a1a58246daff7dffca793ab07b8",
            "vout": 12,
            "scriptSig": {
                "asm": "",
                "hex": ""
            },
            "sequence": 4294967295
        }
    ],
    "vout": [
        {
            "value": 12.52,
            "n": 0,
            "scriptPubKey": {
                "asm": "OP_DUP OP_HASH160 1ae882e788091732da6910595314447c9e38bd8d OP_EQUALVERIFY OP_CHECKSIG",
                "hex": "76a9141ae882e788091732da6910595314447c9e38bd8d88ac",
                "reqSigs": 1,
                "type": "pubkeyhash",
                "addresses": [
                    "LMgENNXzzuPxp7vfMjDrCU44bsmrEMgqvc"
                ]
            }
        }, 
        {
            "value": 0.01000487,
            "n": 1,
            "scriptPubKey": {
                "asm": "OP_DUP OP_HASH160 6b474cbf0f6004329b630bdd4798f2c23d1751b6 OP_EQUALVERIFY OP_CHECKSIG",
                "hex": "76a9146b474cbf0f6004329b630bdd4798f2c23d1751b688ac",
                "reqSigs": 1,
                "type": "pubkeyhash",
                "addresses": [
                    "LV1ByjbJNFTHyFQqwqwdJXKJznYDzXzg4B"
                ]
            }
        }
    ],
    "hex": "02000000031e1977dc524bec5929e95d8d0946812944b7b5bda12f5b99fdf557773f2ee65e0100000000ffffffff8a398e44546dce0245452b90130e86832b21fd68f26662bc33aeb7c6c115d23c1900000000ffffffffb807ab93a7fcdff7af6d24581a4a18aa7c1db1ebecba2617a6805b009513940f0c00000000ffffffff020001a04a000000001976a9141ae882e788091732da6910595314447c9e38bd8d88ac27440f00000000001976a9146b474cbf0f6004329b630bdd4798f2c23d1751b688ac00000000"
}
