{
    "txid": "0d1d4edfc217d9db3ab6a9298f26a52eae3c52f55a6cb8ccbc14f7c727572894",
    "hash": "0d1d4edfc217d9db3ab6a9298f26a52eae3c52f55a6cb8ccbc14f7c727572894",
    "version": 1,
    "locktime": 0,
    "vin": [
    ],
    "vout": [
        {
            "value": 1.00,
            "n": 0,
            "scriptPubKey": {
                "asm": "2 02a5613bd857b7048924264d1e70e08fb2a7e6527d32b7ab1bb993ac59964ff397 021ac43c7ff740014c3b33737ede99c967e4764553d1b2b83db77c83b8715fa72d 02df2089105c77f266fa11a9d33f05c735234075f2e8780824c6b709415f9fb485 3 OP_CHECKMULTISIG",
                "hex": "522102a5613bd857b7048924264d1e70e08fb2a7e6527d32b7ab1bb993ac59964ff39721021ac43c7ff740014c3b33737ede99c967e4764553d1b2b83db77c83b8715fa72d2102df2089105c77f266fa11a9d33f05c735234075f2e8780824c6b709415f9fb48553ae",
                "reqSigs": 2,
                "type": "multisig",
                "addresses": [
                    "La2DHFRvKvGwR78JkkMCzEw6BJUrSQa72A", 
                    "LZkrFMdJCxcpf2fSorE4MJHUNZGfAnD7gf", 
                    "LNZrr8v1gBobYuA3ABbTkRnuf7n5RRo5Cz"
                ]
            }
        }
    ],
    "hex": "01000000000100e1f5050000000069522102a5613bd857b7048924264d1e70e08fb2a7e6527d32b7ab1bb993ac59964ff39721021ac43c7ff740014c3b33737ede99c967e4764553d1b2b83db77c83b8715fa72d2102df2089105c77f266fa11a9d33f05c735234075f2e8780824c6b709415f9fb48553ae00000000"
}
